{
  "contractName": "ProductInfo",
  "abi": [
    {
      "inputs": [
        {
          "internalType": "address",
          "name": "",
          "type": "address"
        },
        {
          "internalType": "uint256",
          "name": "",
          "type": "uint256"
        }
      ],
      "name": "storeProduct",
      "outputs": [
        {
          "internalType": "uint256",
          "name": "id",
          "type": "uint256"
        },
        {
          "internalType": "string",
          "name": "name",
          "type": "string"
        },
        {
          "internalType": "string",
          "name": "image",
          "type": "string"
        },
        {
          "internalType": "uint256",
          "name": "qty",
          "type": "uint256"
        },
        {
          "internalType": "uint256",
          "name": "ruppess",
          "type": "uint256"
        }
      ],
      "stateMutability": "view",
      "type": "function",
      "constant": true
    },
    {
      "inputs": [
        {
          "internalType": "string",
          "name": "_name",
          "type": "string"
        },
        {
          "internalType": "string",
          "name": "_image",
          "type": "string"
        },
        {
          "internalType": "uint256",
          "name": "_qty",
          "type": "uint256"
        },
        {
          "internalType": "uint256",
          "name": "_ruppees",
          "type": "uint256"
        }
      ],
      "name": "addProduct",
      "outputs": [],
      "stateMutability": "nonpayable",
      "type": "function"
    },
    {
      "inputs": [
        {
          "internalType": "string",
          "name": "state",
          "type": "string"
        },
        {
          "internalType": "uint256",
          "name": "_id",
          "type": "uint256"
        },
        {
          "internalType": "uint256",
          "name": "_qty",
          "type": "uint256"
        }
      ],
      "name": "stateUpdate",
      "outputs": [],
      "stateMutability": "nonpayable",
      "type": "function"
    },
    {
      "inputs": [
        {
          "internalType": "address",
          "name": "app_user",
          "type": "address"
        }
      ],
      "name": "getProducts",
      "outputs": [
        {
          "internalType": "uint256[]",
          "name": "",
          "type": "uint256[]"
        },
        {
          "internalType": "string[]",
          "name": "",
          "type": "string[]"
        },
        {
          "internalType": "string[]",
          "name": "",
          "type": "string[]"
        },
        {
          "internalType": "uint256[]",
          "name": "",
          "type": "uint256[]"
        },
        {
          "internalType": "uint256[]",
          "name": "",
          "type": "uint256[]"
        }
      ],
      "stateMutability": "view",
      "type": "function",
      "constant": true
    }
  ],
  "bytecode": "0x6080806040523461001657610af9908161001c8239f35b600080fdfe604060808152600436101561001357600080fd5b7c010000000000000000000000000000000000000000000000000000000060003504806301cecd14146103ff5780631691473c1461028a578063c73b50ce1461011e5763e22a89be1461006557600080fd5b3461011957806003193601126101195761007d61080e565b73ffffffffffffffffffffffffffffffffffffffff6024359116600052600060205281600020908154811015610119576100b691610906565b508054906100c660018201610979565b9261010a6100d660028401610979565b9160046003850154940154926100fd8251978897885260a0602089015260a0880190610888565b9186830390870152610888565b91606084015260808301520390f35b600080fd5b50346101195760603660031901126101195760043567ffffffffffffffff8111610119576101509036906004016107b7565b602435916044359233600052602090600082528260002090600019810190811161025a5761017d91610906565b50928251908282018151926101a985828186019661019c81878a610865565b8101038084520182610795565b5190208451848101907f496e637265616d656e74000000000000000000000000000000000000000000008252600a81526101e281610779565b51902014610273575b610205838551809361019c83830196879251928391610865565b5190209151908101907f4465637265616d656e74000000000000000000000000000000000000000000008252600a815261023e81610779565b5190201461024857005b600301805491820391821161025a5755005b60e060020a634e487b7102600052601160045260246000fd5b6003850180549087820180921161025a57556101eb565b5034610119576020806003193601126101195773ffffffffffffffffffffffffffffffffffffffff6102ba61080e565b1680600052600082528260002054926102d284610a34565b926102dc85610a66565b906102e686610a66565b916102f087610a34565b966102fa81610a34565b9560005b8281106103685761032e896103648a6103568e6103488d8d61033b8e8e84519b8c9b60a08d5260a08d0190610831565b918b8303908c01526108ad565b91888303908901526108ad565b908582036060870152610831565b908382036080850152610831565b0390f35b8160005260008552600461037f8289600020610906565b50805461038c848d610ab0565b5261039960018201610979565b6103a38488610ab0565b526103ae8387610ab0565b506103bb60028201610979565b6103c5848a610ab0565b526103d08389610ab0565b5060038101546103e0848e610ab0565b5201546103ed828a610ab0565b52600019811461025a576001016102fe565b50346101195760803660031901126101195760043567ffffffffffffffff8111610119576104319036906004016107b7565b60243567ffffffffffffffff8111610119576104519036906004016107b7565b913360005260006020528060002054906001820180921161025a57336000526000602052806000209080519260a0840184811067ffffffffffffffff821117610676578252835260208301938452820193845260443560608301526064356080830152805468010000000000000000811015610676576104d691600182018155610906565b92909261076057815183555180519067ffffffffffffffff8211610676578190610503600186015461093b565b601f811161070a575b50602090601f831160011461069a5760009261068f575b5050816002029160080260020a6000190419161760018301555b60028201925192835167ffffffffffffffff81116106765761055f825461093b565b601f811161062d575b506020601f82116001146105bc5790806080949392600496976000926105b1575b5050816002029160080260020a6000190419161790555b606081015160038501550151910155005b015190503880610589565b601f198216958360005260206000209660005b81811061061557509260049697600193600293836080999897106105fa575b505050020190556105a0565b01516008601f841602840a60001904191690553880806105ee565b838301518955600190980197602093840193016105cf565b8260005260206000206020601f8401048101916020841061066c575b601f602091010401905b8181106106605750610568565b60008155600101610653565b9091508190610649565b60e060020a634e487b7102600052604160045260246000fd5b015190503880610523565b600186016000908152602081209350601f198516905b8181106106f2575091600293918560019694106106d7575b5050500201600183015561053d565b01516008601f841602840a60001904191690553880806106c8565b929360206001819287860151815501950193016106b0565b9091506001850160005260206000206020601f85010481019160208510610756575b906020601f86959493010401905b818110610747575061050c565b6000815584935060010161073a565b909150819061072c565b60e060020a634e487b7102600052600060045260246000fd5b6040810190811067ffffffffffffffff82111761067657604052565b90601f8019910116810190811067ffffffffffffffff82111761067657604052565b81601f820112156101195780359067ffffffffffffffff821161067657604051926107ec601f8401601f191660200185610795565b8284526020838301011161011957816000926020809301838601378301015290565b6004359073ffffffffffffffffffffffffffffffffffffffff8216820361011957565b90815180825260208080930193019160005b828110610851575050505090565b835185529381019392810192600101610843565b60005b8381106108785750506000910152565b8181015183820152602001610868565b906020916108a181518092818552858086019101610865565b601f01601f1916010190565b80518083526020808202840181019392810192600090828101905b8483106108d85750505050505090565b90919293949584806108f6600193601f198682030187528a51610888565b98019301930191949392906108c8565b8054821015610922576000526005602060002091020190600090565b60e060020a634e487b7102600052603260045260246000fd5b906001600283049216801561096f575b602083101461095657565b60e060020a634e487b7102600052602260045260246000fd5b91607f169161094b565b9060405191826000825461098c8161093b565b9081845260209460019182811690816000146109fb57506001146109bc575b5050506109ba92500383610795565b565b600090815285812095935091905b8183106109e35750506109ba93508201013880806109ab565b855488840185015294850194879450918301916109ca565b925050506109ba94925060ff191682840152151581028201013880806109ab565b67ffffffffffffffff81116106765760208091020190565b90610a3e82610a1c565b610a4b6040519182610795565b8281528092610a5c601f1991610a1c565b0190602036910137565b90610a7082610a1c565b610a7d6040519182610795565b8281528092610a8e601f1991610a1c565b019060005b828110610a9f57505050565b806060602080938501015201610a93565b805182101561092257602080920201019056fea264697066735822122020ee5473fbc17a9f9866b0787b17f79cf87f61155cbc0b5ba618aea155f4516164736f6c63430008150033",
  "immutableReferences": {},
  "source": "// SPDX-License-Identifier: SEE LICENSE IN LICENSE\r\npragma solidity ^0.8.21;\r\n\r\ncontract ProductInfo {\r\n    struct Item {\r\n        uint256 id;\r\n        string name;\r\n        string image;\r\n        uint256 qty;\r\n        uint256 ruppess;\r\n    }\r\n\r\n    mapping(address => Item[]) public storeProduct;\r\n\r\n    function addProduct(\r\n        string memory _name,\r\n        string memory _image,\r\n        uint256 _qty,\r\n        uint256 _ruppees\r\n    ) public {\r\n        uint256 indexCount = storeProduct[msg.sender].length + 1;\r\n        storeProduct[msg.sender].push(\r\n            Item(indexCount, _name, _image, _qty, _ruppees)\r\n        );\r\n    }\r\n\r\n    function stateUpdate(\r\n        string memory state,\r\n        uint256 _id,\r\n        uint256 _qty\r\n    ) public {\r\n        Item storage index = storeProduct[msg.sender][_id - 1];\r\n\r\n        if (keccak256(abi.encodePacked(state)) == keccak256(abi.encodePacked(\"Increament\"))) {\r\n            index.qty += _qty;\r\n        }\r\n        if (keccak256(abi.encodePacked(state)) == keccak256(abi.encodePacked(\"Decreament\"))) {\r\n            index.qty -= _qty;\r\n        }\r\n    }\r\n\r\n    function getProducts(\r\n        address app_user\r\n    )\r\n        public\r\n        view\r\n        returns (\r\n            uint256[] memory,\r\n            string[] memory,\r\n            string[] memory,\r\n            uint256[] memory,\r\n            uint256[] memory\r\n        )\r\n    {\r\n        uint256 index = storeProduct[app_user].length;\r\n        uint256[] memory _id = new uint256[](index);\r\n        string[] memory _name = new string[](index);\r\n        string[] memory _image = new string[](index);\r\n        uint256[] memory _qty = new uint256[](index);\r\n        uint256[] memory _ruppess = new uint256[](index);\r\n\r\n        for (uint256 i = 0; i < index; i++) {\r\n            Item storage item = storeProduct[app_user][i];\r\n            _id[i] = item.id;\r\n            _name[i] = item.name;\r\n            _image[i] = item.image;\r\n            _qty[i] = item.qty;\r\n            _ruppess[i] = item.ruppess;\r\n        }\r\n        return (_id, _name, _image, _qty, _ruppess);\r\n    }\r\n}\r\n",
  "sourcePath": "C:\\Users\\likit\\OneDrive\\Desktop\\Supply chain\\Blocks\\contracts\\ProductInfo.sol",
  "compiler": {
    "name": "solc",
    "version": "0.8.21+commit.d9974bed.Emscripten.clang"
  },
  "schemaVersion": "3.4.16",
  "updatedAt": "2025-05-01T07:07:51.168Z",
  "networkType": "ethereum",
  "devdoc": {
    "kind": "dev",
    "methods": {},
    "version": 1
  },
  "userdoc": {
    "kind": "user",
    "methods": {},
    "version": 1
  }
}