{
  "contractName": "PurchaseHistory",
  "abi": [
    {
      "inputs": [
        {
          "internalType": "address",
          "name": "",
          "type": "address"
        },
        {
          "internalType": "uint256",
          "name": "",
          "type": "uint256"
        }
      ],
      "name": "purchaseState",
      "outputs": [
        {
          "internalType": "uint256",
          "name": "id",
          "type": "uint256"
        },
        {
          "internalType": "string",
          "name": "name",
          "type": "string"
        },
        {
          "internalType": "string",
          "name": "mobile",
          "type": "string"
        },
        {
          "internalType": "string",
          "name": "email",
          "type": "string"
        },
        {
          "internalType": "string",
          "name": "addresses",
          "type": "string"
        },
        {
          "internalType": "string",
          "name": "pname",
          "type": "string"
        },
        {
          "internalType": "string",
          "name": "image",
          "type": "string"
        },
        {
          "internalType": "string",
          "name": "status",
          "type": "string"
        },
        {
          "internalType": "uint256",
          "name": "qty",
          "type": "uint256"
        },
        {
          "internalType": "uint256",
          "name": "cost",
          "type": "uint256"
        },
        {
          "internalType": "uint256",
          "name": "total",
          "type": "uint256"
        }
      ],
      "stateMutability": "view",
      "type": "function",
      "constant": true
    },
    {
      "inputs": [
        {
          "internalType": "string",
          "name": "_name",
          "type": "string"
        },
        {
          "internalType": "string",
          "name": "_mobile",
          "type": "string"
        },
        {
          "internalType": "string",
          "name": "_email",
          "type": "string"
        },
        {
          "internalType": "string",
          "name": "_addresses",
          "type": "string"
        },
        {
          "internalType": "string",
          "name": "_pname",
          "type": "string"
        },
        {
          "internalType": "string",
          "name": "_image",
          "type": "string"
        },
        {
          "internalType": "string",
          "name": "_status",
          "type": "string"
        },
        {
          "internalType": "uint256",
          "name": "_qty",
          "type": "uint256"
        },
        {
          "internalType": "uint256",
          "name": "_cost",
          "type": "uint256"
        },
        {
          "internalType": "uint256",
          "name": "_total",
          "type": "uint256"
        }
      ],
      "name": "setData",
      "outputs": [],
      "stateMutability": "nonpayable",
      "type": "function"
    },
    {
      "inputs": [],
      "name": "getDataHistory",
      "outputs": [
        {
          "internalType": "uint256[]",
          "name": "",
          "type": "uint256[]"
        },
        {
          "internalType": "string[]",
          "name": "",
          "type": "string[]"
        },
        {
          "internalType": "string[]",
          "name": "",
          "type": "string[]"
        },
        {
          "internalType": "string[]",
          "name": "",
          "type": "string[]"
        },
        {
          "internalType": "string[]",
          "name": "",
          "type": "string[]"
        },
        {
          "internalType": "string[]",
          "name": "",
          "type": "string[]"
        },
        {
          "internalType": "string[]",
          "name": "",
          "type": "string[]"
        },
        {
          "internalType": "string[]",
          "name": "",
          "type": "string[]"
        },
        {
          "internalType": "uint256[]",
          "name": "",
          "type": "uint256[]"
        },
        {
          "internalType": "uint256[]",
          "name": "",
          "type": "uint256[]"
        },
        {
          "internalType": "uint256[]",
          "name": "",
          "type": "uint256[]"
        }
      ],
      "stateMutability": "view",
      "type": "function",
      "constant": true
    },
    {
      "inputs": [
        {
          "internalType": "string",
          "name": "_status",
          "type": "string"
        },
        {
          "internalType": "uint256",
          "name": "_id",
          "type": "uint256"
        }
      ],
      "name": "updatePurchase",
      "outputs": [],
      "stateMutability": "nonpayable",
      "type": "function"
    },
    {
      "inputs": [
        {
          "internalType": "string",
          "name": "useremail",
          "type": "string"
        }
      ],
      "name": "getAccordingToUser",
      "outputs": [
        {
          "internalType": "uint256[]",
          "name": "",
          "type": "uint256[]"
        },
        {
          "internalType": "string[]",
          "name": "",
          "type": "string[]"
        },
        {
          "internalType": "string[]",
          "name": "",
          "type": "string[]"
        },
        {
          "internalType": "string[]",
          "name": "",
          "type": "string[]"
        },
        {
          "internalType": "string[]",
          "name": "",
          "type": "string[]"
        },
        {
          "internalType": "string[]",
          "name": "",
          "type": "string[]"
        },
        {
          "internalType": "string[]",
          "name": "",
          "type": "string[]"
        },
        {
          "internalType": "string[]",
          "name": "",
          "type": "string[]"
        },
        {
          "internalType": "uint256[]",
          "name": "",
          "type": "uint256[]"
        },
        {
          "internalType": "uint256[]",
          "name": "",
          "type": "uint256[]"
        },
        {
          "internalType": "uint256[]",
          "name": "",
          "type": "uint256[]"
        }
      ],
      "stateMutability": "view",
      "type": "function",
      "constant": true
    }
  ],
  "bytecode": "0x60808060405234610016576117bb908161001c8239f35b600080fdfe610220604052600436101561001357600080fd5b7c0100000000000000000000000000000000000000000000000000000000600035048063246c41c914610fe85780635c4e0d7614610e315780639bb489ae14610cd5578063ec4e86f114610ada5763ef372fc01461007057600080fd5b34610ad55761014080600319360112610ad55760043567ffffffffffffffff8111610ad5576100a39036906004016113c4565b60243567ffffffffffffffff8111610ad5576100c39036906004016113c4565b9160443567ffffffffffffffff8111610ad5576100e49036906004016113c4565b9260643567ffffffffffffffff8111610ad5576101059036906004016113c4565b60843567ffffffffffffffff8111610ad5576101259036906004016113c4565b60a43567ffffffffffffffff8111610ad5576101459036906004016113c4565b9060c43567ffffffffffffffff8111610ad5576101669036906004016113c4565b9233600052600060205260406000205497600189018911610abc57336000526000602052604060002095604051998a61016081011067ffffffffffffffff6101608d0111176105aa576001906101608c01604052018a5260208a0198895260408a01526060890152608088015260a087015260c086015260e085015260e4356101008501526101043561012085015261012435828501528054680100000000000000008110156105aa5761021f916001820181556115b9565b929092610aa357835183555180519067ffffffffffffffff82116105aa57819061024c60018601546115ee565b601f8111610a50575b50602090601f83116001146109dc576000926109d1575b5050816002029160080260020a6000190419161760018301555b604083015180519067ffffffffffffffff82116105aa5781906102ac60028601546115ee565b601f811161097e575b50602090601f831160011461090a576000926108ff575b5050816002029160080260020a6000190419161760028301555b606083015180519067ffffffffffffffff82116105aa57819061030c60038601546115ee565b601f81116108ac575b50602090601f83116001146108385760009261082d575b5050816002029160080260020a6000190419161760038301555b608083015180519067ffffffffffffffff82116105aa57819061036c60048601546115ee565b601f81116107da575b50602090601f831160011461076a5760009261075f575b5050816002029160080260020a6000190419161760048301555b60a083015180519067ffffffffffffffff82116105aa5781906103cc60058601546115ee565b601f811161070c575b50602090601f831160011461069c57600092610691575b5050816002029160080260020a6000190419161760058301555b60c083015180519067ffffffffffffffff82116105aa57819061042c60068601546115ee565b601f811161063e575b50602090601f83116001146105ce576000926105c3575b5050816002029160080260020a6000190419161760068301555b600782019260e08101519384519467ffffffffffffffff86116105aa5761048d82546115ee565b601f8111610561575b50602090601f87116001146104f357958091600a96976000926104e8575b5050816002029160080260020a6000190419161790555b610100810151600885015561012081015160098501550151910155005b0151905038806104b4565b90601f198716918360005260206000209260005b8181106105495750926002928992600a999a6001961061052e575b505050020190556104cb565b01516008601f841602840a6000190419169055388080610522565b92936020600181928786015181550195019301610507565b8260005260206000206020601f890104810191602089106105a0575b601f602091010401905b8181106105945750610496565b60008155600101610587565b909150819061057d565b60e060020a634e487b7102600052604160045260246000fd5b01519050388061044c565b600686016000908152602081209350601f198516905b8181106106265750916002939185600196941061060b575b50505002016006830155610466565b01516008601f841602840a60001904191690553880806105fc565b929360206001819287860151815501950193016105e4565b9091506006850160005260206000206020601f85010481016020851061068a575b90849392915b6020601f8401048201811061067b575050610435565b60008155859450600101610665565b508061065f565b0151905038806103ec565b600586016000908152602081209350601f198516905b8181106106f4575091600293918560019694106106d9575b50505002016005830155610406565b01516008601f841602840a60001904191690553880806106ca565b929360206001819287860151815501950193016106b2565b9091506005850160005260206000206020601f850104810160208510610758575b90849392915b6020601f840104820181106107495750506103d5565b60008155859450600101610733565b508061072d565b01519050388061038c565b600486016000908152602081209350601f198516905b8181106107c2575091600293918560019694106107a7575b505050020160048301556103a6565b01516008601f841602840a6000190419169055388080610798565b92936020600181928786015181550195019301610780565b9091506004850160005260206000206020601f850104810160208510610826575b90849392915b6020601f84010482018110610817575050610375565b60008155859450600101610801565b50806107fb565b01519050388061032c565b91506003850160005260206000209160005b601f19851681106108945750918391600293600195601f19811610610879575b50505002016003830155610346565b01516008601f841602840a600019041916905538808061086a565b9192602060018192868501518155019401920161084a565b9091506003850160005260206000206020601f8501048101602085106108f8575b90849392915b6020601f840104820181106108e9575050610315565b600081558594506001016108d3565b50806108cd565b0151905038806102cc565b91506002850160005260206000209160005b601f19851681106109665750918391600293600195601f1981161061094b575b505050020160028301556102e6565b01516008601f841602840a600019041916905538808061093c565b9192602060018192868501518155019401920161091c565b9091506002850160005260206000206020601f8501048101602085106109ca575b90849392915b6020601f840104820181106109bb5750506102b5565b600081558594506001016109a5565b508061099f565b01519050388061026c565b91506001850160005260206000209160005b601f1985168110610a385750918391600293600195601f19811610610a1d575b50505002016001830155610286565b01516008601f841602840a6000190419169055388080610a0e565b919260206001819286850151815501940192016109ee565b9091506001850160005260206000206020601f850104810160208510610a9c575b90849392915b6020601f84010482018110610a8d575050610255565b60008155859450600101610a77565b5080610a71565b60e060020a634e487b7102600052600060045260246000fd5b60e060020a634e487b7102600052601160045260246000fd5b600080fd5b34610ad5576000366003190112610ad557336000526000602052604060002054610b03816116e7565b610b0c82611719565b90610b1683611719565b610b1f84611719565b610b2885611719565b610b3186611719565b610b3a87611719565b610b4388611719565b91610b4d896116e7565b93610b578a6116e7565b95610b618b6116e7565b9760005b8c8110610b8257506040519b508b9a610b7e9a8c6114eb565b0390f35b80600a8c610bd18f94610cd095336000526000602052610ba68260406000206115b9565b5093610bb483865492611772565b52610bc16001850161162c565b610bcb8383611772565b52611772565b50610bde6002820161162c565b610be88487611772565b52610bf38386611772565b50610c006003820161162c565b610c0a8488611772565b52610c158387611772565b50610c226004820161162c565b610c2c8489611772565b52610c378388611772565b50610c446005820161162c565b610c4e848a611772565b52610c598389611772565b50610c666006820161162c565b610c70848b611772565b52610c7b838a611772565b50610c886007820161162c565b610c92848c611772565b52610c9d838b611772565b506008810154610cad848d611772565b526009810154610cbd848e611772565b520154610cca828d611772565b52611763565b610b65565b34610ad5576040366003190112610ad55760043573ffffffffffffffffffffffffffffffffffffffff8116809103610ad5576024359060005260006020526040600020908154811015610ad557610d2b916115b9565b508054610d3a6001830161162c565b91610d476002820161162c565b610d536003830161162c565b91610d606004820161162c565b610d6c6005830161162c565b610d786006840161162c565b90610d856007850161162c565b92600885015496600986015495600a0154966040519a8b9a610160908c528060208d01528b01610db491611472565b8a810360408c0152610dc591611472565b89810360608b0152610dd691611472565b88810360808a0152610de791611472565b87810360a0890152610df891611472565b86810360c0880152610e0991611472565b85810360e0870152610e1a91611472565b926101008501526101208401526101408301520390f35b34610ad5576040366003190112610ad55760043567ffffffffffffffff8111610ad557610e629036906004016113c4565b336000526000602052604060002054906000915b808310610e7f57005b336000526000602052610e968360406000206115b9565b5092835460243514610eb6575b610eaf91929350611763565b9190610e76565b82519367ffffffffffffffff85116105aa57610ed560078201546115ee565b601f8111610f9c575b506020601f8611600114610f295785610eaf949596600792600091610f1e575b50600282810292600802900a600019041916179101555b83929150610ea3565b905087015188610efe565b601f198616906007830160005260206000209160005b818110610f84575087600793600193610eaf98999a60029410610f69575b50500201910155610f15565b8a01516008601f841602840a60001904191690558980610f5d565b9192602060018192868b015181550194019201610f3f565b6007820160005260206000206020601f88010481019160208810610fde575b601f602091010401905b818110610fd25750610ede565b60008155600101610fc5565b9091508190610fbb565b34610ad5576020366003190112610ad55760043567ffffffffffffffff8111610ad5576110199036906004016113c4565b608052336000526000602052604060002054611034816116e7565b6101805261104181611719565b6101a05261104e81611719565b60a05261105a81611719565b60c05261106681611719565b60e05261107281611719565b6101005261107f81611719565b6101205261108c81611719565b61014052611099816116e7565b6101c0526110a6816116e7565b610160526110b3816116e7565b6101e0526000610200525b8061020051106110fe5760405180610b7e6101e051610160516101c05161014051610120516101005160e05160c05160a0516101a051610180518c6114eb565b3360005260006020526111186102005160406000206115b9565b5060405160208101906111476020826080515161113a8187856080510161144f565b81010380845201826113a2565b519020604051600383015481600061115e836115ee565b92600181169081156113845750600114611340575b611186925003601f1981018352826113a2565b60208151910120146111a9575b506111a061020051611763565b610200526110be565b80600a91546111be6102005161018051611772565b526111cb6001820161162c565b6111db610200516101a051611772565b526111ec610200516101a051611772565b506111f96002820161162c565b6112086102005160a051611772565b526112186102005160a051611772565b506112256003820161162c565b6112346102005160c051611772565b526112446102005160c051611772565b506112516004820161162c565b6112606102005160e051611772565b526112706102005160e051611772565b5061127d6005820161162c565b61128d6102005161010051611772565b5261129e6102005161010051611772565b506112ab6006820161162c565b6112bb6102005161012051611772565b526112cc6102005161012051611772565b506112d96007820161162c565b6112e96102005161014051611772565b526112fa6102005161014051611772565b506008810154611310610200516101c051611772565b5260098101546113266102005161016051611772565b520154611339610200516101e051611772565b5281611193565b5050600384016000528160206000206000905b83821061136a575050602061118692820101611173565b602091925080600191548385880101520191018391611353565b6020925061118694915060ff19168284015280151502820101611173565b90601f8019910116810190811067ffffffffffffffff8211176105aa57604052565b81601f82011215610ad55780359067ffffffffffffffff82116105aa57604051926113f9601f8401601f1916602001856113a2565b82845260208383010111610ad557816000926020809301838601378301015290565b90815180825260208080930193019160005b82811061143b575050505090565b83518552938101939281019260010161142d565b60005b8381106114625750506000910152565b8181015183820152602001611452565b9060209161148b8151809281855285808601910161144f565b601f01601f1916010190565b908151808252602080920191828180840282019501936000915b8483106114c15750505050505090565b90919293949584806114db83856001950387528a51611472565b98019301930191949392906114b1565b9996906115989661155f8c6115b69e9c98611551611589996115436115a79f9a61153561157b9b61152761156d9b610160808b528a019061141b565b9088820360208a0152611497565b908682036040880152611497565b908482036060860152611497565b916080818403910152611497565b8c810360a08e015290611497565b908a820360c08c0152611497565b9088820360e08a0152611497565b9086820361010088015261141b565b9084820361012086015261141b565b9161014081840391015261141b565b90565b80548210156115d557600052600b602060002091020190600090565b60e060020a634e487b7102600052603260045260246000fd5b9060016002830492168015611622575b602083101461160957565b60e060020a634e487b7102600052602260045260246000fd5b91607f16916115fe565b9060405191826000825461163f816115ee565b9081845260209460019182811690816000146116ae575060011461166f575b50505061166d925003836113a2565b565b600090815285812095935091905b81831061169657505061166d935082010138808061165e565b8554888401850152948501948794509183019161167d565b9250505061166d94925060ff1916828401521515810282010138808061165e565b67ffffffffffffffff81116105aa5760208091020190565b906116f1826116cf565b6116fe60405191826113a2565b828152809261170f601f19916116cf565b0190602036910137565b90611723826116cf565b61173060405191826113a2565b8281528092611741601f19916116cf565b019060005b82811061175257505050565b806060602080938501015201611746565b6000198114610abc5760010190565b80518210156115d557602080920201019056fea264697066735822122068647dcd2faafaf29fab6d956cbe67c5f636b95ffcc636fdb23ae93342c2d06964736f6c63430008150033",
  "immutableReferences": {},
  "source": "// SPDX-License-Identifier: SEE LICENSE IN LICENSE\r\npragma solidity ^0.8.21;\r\n\r\ncontract PurchaseHistory {\r\n    struct Purchase {\r\n        uint256 id;\r\n        string name;\r\n        string mobile;\r\n        string email;\r\n        string addresses;\r\n        string pname;\r\n        string image;\r\n        string status;\r\n        uint256 qty;\r\n        uint256 cost;\r\n        uint256 total;\r\n    }\r\n    mapping(address => Purchase[]) public purchaseState;\r\n\r\n    function setData(\r\n        string memory _name,\r\n        string memory _mobile,\r\n        string memory _email,\r\n        string memory _addresses,\r\n        string memory _pname,\r\n        string memory _image,\r\n        string memory _status,\r\n        uint256 _qty,\r\n        uint256 _cost,\r\n        uint256 _total\r\n    ) public {\r\n        uint256 index = purchaseState[msg.sender].length + 1;\r\n        purchaseState[msg.sender].push(\r\n            Purchase(\r\n                index,\r\n                _name,\r\n                _mobile,\r\n                _email,\r\n                _addresses,\r\n                _pname,\r\n                _image,\r\n                _status,\r\n                _qty,\r\n                _cost,\r\n                _total\r\n            )\r\n        );\r\n    }\r\n\r\n    function getDataHistory()\r\n        public\r\n        view\r\n        returns (\r\n            uint256[] memory,\r\n            string[] memory,\r\n            string[] memory,\r\n            string[] memory,\r\n            string[] memory,\r\n            string[] memory,\r\n            string[] memory,\r\n            string[] memory,\r\n            uint256[] memory,\r\n            uint256[] memory,\r\n            uint256[] memory\r\n        )\r\n    {\r\n        uint256 index = purchaseState[msg.sender].length;\r\n\r\n        uint256[] memory _id = new uint256[](index);\r\n        string[] memory _name = new string[](index);\r\n        string[] memory _mobile = new string[](index);\r\n        string[] memory _email = new string[](index);\r\n        string[] memory _addresses = new string[](index);\r\n        string[] memory _pname = new string[](index);\r\n        string[] memory _image = new string[](index);\r\n        string[] memory _status = new string[](index);\r\n        uint256[] memory _qty = new uint256[](index);\r\n        uint256[] memory _cost = new uint256[](index);\r\n        uint256[] memory _total = new uint256[](index);\r\n\r\n        for (uint256 i = 0; i < index; i++) {\r\n            Purchase storage p = purchaseState[msg.sender][i];\r\n            _id[i] = p.id;\r\n            _name[i] = p.name;\r\n            _mobile[i] = p.mobile;\r\n            _email[i] = p.email;\r\n            _addresses[i] = p.addresses;\r\n            _pname[i] = p.pname;\r\n            _image[i] = p.image;\r\n            _status[i] = p.status;\r\n            _qty[i] = p.qty;\r\n            _cost[i] = p.cost;\r\n            _total[i] = p.total;\r\n        }\r\n        return (\r\n            _id,\r\n            _name,\r\n            _mobile,\r\n            _email,\r\n            _addresses,\r\n            _pname,\r\n            _image,\r\n            _status,\r\n            _qty,\r\n            _cost,\r\n            _total\r\n        );\r\n    }\r\n\r\n    function updatePurchase(string memory _status, uint256 _id) public {\r\n        uint256 index = purchaseState[msg.sender].length;\r\n        \r\n        for (uint256 id = 0; id < index; id++) {\r\n            Purchase storage pur = purchaseState[msg.sender][id];\r\n            if (_id == pur.id) {\r\n                pur.status = _status;\r\n            }\r\n        }\r\n      \r\n    }\r\n\r\n    function getAccordingToUser(\r\n        string memory useremail\r\n    )\r\n        public\r\n        view\r\n        returns (\r\n            uint256[] memory,\r\n            string[] memory,\r\n            string[] memory,\r\n            string[] memory,\r\n            string[] memory,\r\n            string[] memory,\r\n            string[] memory,\r\n            string[] memory,\r\n            uint256[] memory,\r\n            uint256[] memory,\r\n            uint256[] memory\r\n        )\r\n    {\r\n        uint256 index = purchaseState[msg.sender].length;\r\n\r\n        uint256[] memory _id = new uint256[](index);\r\n        string[] memory _name = new string[](index);\r\n        string[] memory _mobile = new string[](index);\r\n        string[] memory _email = new string[](index);\r\n        string[] memory _addresses = new string[](index);\r\n        string[] memory _pname = new string[](index);\r\n        string[] memory _image = new string[](index);\r\n        string[] memory _status = new string[](index);\r\n        uint256[] memory _qty = new uint256[](index);\r\n        uint256[] memory _cost = new uint256[](index);\r\n        uint256[] memory _total = new uint256[](index);\r\n\r\n        for (uint256 i = 0; i < index; i++) {\r\n            Purchase storage p = purchaseState[msg.sender][i];\r\n            if (\r\n                keccak256(abi.encodePacked(useremail)) ==\r\n                keccak256(abi.encodePacked(p.email))\r\n            ) {\r\n                _id[i] = p.id;\r\n                _name[i] = p.name;\r\n                _mobile[i] = p.mobile;\r\n                _email[i] = p.email;\r\n                _addresses[i] = p.addresses;\r\n                _pname[i] = p.pname;\r\n                _image[i] = p.image;\r\n                _status[i] = p.status;\r\n                _qty[i] = p.qty;\r\n                _cost[i] = p.cost;\r\n                _total[i] = p.total;\r\n            }\r\n        }\r\n        return (\r\n            _id,\r\n            _name,\r\n            _mobile,\r\n            _email,\r\n            _addresses,\r\n            _pname,\r\n            _image,\r\n            _status,\r\n            _qty,\r\n            _cost,\r\n            _total\r\n        );\r\n    }\r\n}\r\n",
  "sourcePath": "C:\\Users\\likit\\OneDrive\\Desktop\\Supply chain\\Blocks\\contracts\\PurchaseHistory.sol",
  "compiler": {
    "name": "solc",
    "version": "0.8.21+commit.d9974bed.Emscripten.clang"
  },
  "schemaVersion": "3.4.16",
  "updatedAt": "2025-05-01T07:07:51.337Z",
  "networkType": "ethereum",
  "devdoc": {
    "kind": "dev",
    "methods": {},
    "version": 1
  },
  "userdoc": {
    "kind": "user",
    "methods": {},
    "version": 1
  }
}