{
  "contractName": "UsersInfo",
  "abi": [
    {
      "inputs": [
        {
          "internalType": "address",
          "name": "",
          "type": "address"
        },
        {
          "internalType": "uint256",
          "name": "",
          "type": "uint256"
        }
      ],
      "name": "users",
      "outputs": [
        {
          "internalType": "uint256",
          "name": "id",
          "type": "uint256"
        },
        {
          "internalType": "string",
          "name": "name",
          "type": "string"
        },
        {
          "internalType": "string",
          "name": "email",
          "type": "string"
        },
        {
          "internalType": "string",
          "name": "mobile",
          "type": "string"
        },
        {
          "internalType": "string",
          "name": "addresses",
          "type": "string"
        },
        {
          "internalType": "string",
          "name": "password",
          "type": "string"
        }
      ],
      "stateMutability": "view",
      "type": "function",
      "constant": true
    },
    {
      "inputs": [
        {
          "internalType": "string",
          "name": "_password",
          "type": "string"
        },
        {
          "internalType": "string",
          "name": "name",
          "type": "string"
        },
        {
          "internalType": "string",
          "name": "addresses",
          "type": "string"
        },
        {
          "internalType": "string",
          "name": "_mobile",
          "type": "string"
        },
        {
          "internalType": "string",
          "name": "_email",
          "type": "string"
        }
      ],
      "name": "addUser",
      "outputs": [],
      "stateMutability": "nonpayable",
      "type": "function"
    },
    {
      "inputs": [
        {
          "internalType": "string",
          "name": "name",
          "type": "string"
        },
        {
          "internalType": "string",
          "name": "addresses",
          "type": "string"
        },
        {
          "internalType": "string",
          "name": "_mobile",
          "type": "string"
        },
        {
          "internalType": "string",
          "name": "_password",
          "type": "string"
        },
        {
          "internalType": "uint256",
          "name": "id",
          "type": "uint256"
        }
      ],
      "name": "updateUser",
      "outputs": [],
      "stateMutability": "nonpayable",
      "type": "function"
    },
    {
      "inputs": [
        {
          "internalType": "address",
          "name": "app_user",
          "type": "address"
        },
        {
          "internalType": "string",
          "name": "_email",
          "type": "string"
        },
        {
          "internalType": "string",
          "name": "_password",
          "type": "string"
        }
      ],
      "name": "loginSubmit",
      "outputs": [
        {
          "internalType": "uint256",
          "name": "",
          "type": "uint256"
        },
        {
          "internalType": "string",
          "name": "",
          "type": "string"
        },
        {
          "internalType": "string",
          "name": "",
          "type": "string"
        },
        {
          "internalType": "string",
          "name": "",
          "type": "string"
        },
        {
          "internalType": "string",
          "name": "",
          "type": "string"
        }
      ],
      "stateMutability": "view",
      "type": "function",
      "constant": true
    },
    {
      "inputs": [
        {
          "internalType": "address",
          "name": "app_user",
          "type": "address"
        }
      ],
      "name": "getEveryUser",
      "outputs": [
        {
          "internalType": "uint256[]",
          "name": "",
          "type": "uint256[]"
        },
        {
          "internalType": "string[]",
          "name": "",
          "type": "string[]"
        },
        {
          "internalType": "string[]",
          "name": "",
          "type": "string[]"
        },
        {
          "internalType": "string[]",
          "name": "",
          "type": "string[]"
        },
        {
          "internalType": "string[]",
          "name": "",
          "type": "string[]"
        }
      ],
      "stateMutability": "view",
      "type": "function",
      "constant": true
    }
  ],
  "bytecode": "0x608080604052346100165761151d908161001c8239f35b600080fdfe604060808152600436101561001357600080fd5b7c010000000000000000000000000000000000000000000000000000000060003504806354a02f9e14610f395780639b2aec3a14610d5c578063a930ff7c14610895578063ab9dd5a2146107de5763b37a3d821461007057600080fd5b346107d95760a03660031901126107d95760043567ffffffffffffffff81116107d9576100a1903690600401611225565b9060243567ffffffffffffffff81116107d9576100c2903690600401611225565b9060443567ffffffffffffffff81116107d9576100e3903690600401611225565b60643567ffffffffffffffff81116107d957610103903690600401611225565b9360843567ffffffffffffffff81116107d957610124903690600401611225565b91336000526000602052836000205495600187018097116107c057336000526000602052846000209385519760c0890189811067ffffffffffffffff821117610454578752885260208801968752858801526060870152608086015260a0850152805468010000000000000000811015610454576101a791600182018155611051565b9290926107a757835183555180519067ffffffffffffffff82116104545781906101d46001860154611086565b601f8111610754575b50602090601f83116001146106e4576000926106d9575b5050816002029160080260020a6000190419161760018301555b82015180519067ffffffffffffffff82116104545781906102326002850154611086565b601f8111610686575b50602090601f83116001146106165760009261060b575b5050816002029160080260020a6000190419161760028201555b606082015180519067ffffffffffffffff82116104545781906102926003850154611086565b601f81116105b5575b50602090601f83116001146105455760009261053a575b5050816002029160080260020a6000190419161760038201555b608082015180519067ffffffffffffffff8211610454576102f06004840154611086565b601f81116104ee575b50602090601f831160011461047857918060a0949260059460009261046d575b5050816002029160080260020a6000190419161760048201555b0191015180519067ffffffffffffffff82116104545781906103558454611086565b601f8111610401575b50602090601f831160011461039b57600092610390575b5050816002029160080260020a600019041916179055600080f35b015190503880610375565b6000858152602081209350601f198516905b8181106103e9575091600293918560019694106103ce575b50505002019055005b01516008601f841602840a60001904191690553880806103c5565b929360206001819287860151815501950193016103ad565b9091508360005260206000206020601f8501048101916020851061044a575b906020601f86959493010401905b81811061043b575061035e565b6000815584935060010161042e565b9091508190610420565b60e060020a634e487b7102600052604160045260246000fd5b015190503880610319565b90601f198316916004850160005260206000209260005b8181106104d657509360a0959360019360029383600598106104bb575b50505002016004820155610333565b01516008601f841602840a60001904191690553880806104ac565b9293602060018192878601518155019501930161048f565b6004840160005260206000206020601f85010481019160208510610530575b601f602091010401905b81811061052457506102f9565b60008155600101610517565b909150819061050d565b0151905038806102b2565b600385016000908152602081209350601f198516905b81811061059d57509160029391856001969410610582575b505050020160038201556102cc565b01516008601f841602840a6000190419169055388080610573565b9293602060018192878601518155019501930161055b565b9091506003840160005260206000206020601f85010481019160208510610601575b906020601f86959493010401905b8181106105f2575061029b565b600081558493506001016105e5565b90915081906105d7565b015190503880610252565b600285016000908152602081209350601f198516905b81811061066e57509160029391856001969410610653575b5050500201600282015561026c565b01516008601f841602840a6000190419169055388080610644565b9293602060018192878601518155019501930161062c565b9091506002840160005260206000206020601f8501048101602085106106d2575b90849392915b6020601f840104820181106106c357505061023b565b600081558594506001016106ad565b50806106a7565b0151905038806101f4565b600186016000908152602081209350601f198516905b81811061073c57509160029391856001969410610721575b5050500201600183015561020e565b01516008601f841602840a6000190419169055388080610712565b929360206001819287860151815501950193016106fa565b9091506001850160005260206000206020601f8501048101602085106107a0575b90849392915b6020601f840104820181106107915750506101dd565b6000815585945060010161077b565b5080610775565b60e060020a634e487b7102600052600060045260246000fd5b60e060020a634e487b7102600052601160045260246000fd5b600080fd5b50346107d95760603660031901126107d9576107f861102e565b67ffffffffffffffff906024358281116107d95761081a903690600401611225565b6044359283116107d9576108466108919261088392610840610875963690600401611225565b9161130e565b949396916108688992949951998a998a5260a060208b015260a08a01906111ac565b91888303908901526111ac565b9085820360608701526111ac565b9083820360808501526111ac565b0390f35b50346107d95760a03660031901126107d95767ffffffffffffffff6004358181116107d9576108c8903690600401611225565b906024358181116107d9576108e1903690600401611225565b916044358281116107d9576108fa903690600401611225565b926064358381116107d957610913903690600401611225565b3360005261092d6020966000885260843590600020611051565b509160018301845186811161045457806109478354611086565b96601f97888111610d0e575b508a90888311600114610ca757600092610c9c575b5050816002029160080260020a6000190419161790555b805160048401918682116104545781906109998454611086565b878111610c4e575b508990878311600114610be757600092610bdc575b5050816002029160080260020a6000190419161790555b80516005830191858211610454576109e58354611086565b858111610b9b575b508790858311600114610b2e5760039493929160009183610b23575b5050816002029160080260020a6000190419161790555b0192805192831161045457610a358454611086565b94828611610ae0575b839495508092808511600114610a72575050600092610390575050816002029160080260020a600019041916179055600080f35b9291909350601f1985168660005284600020946000905b828210610ac8575050918593916001966002969410610aad575b5050505002019055005b0151908316600802840a600019041916905538808080610aa3565b80600186988294978701518155019701940190610a89565b84600052806000208184860104810196828610610b19575b848391010401955b868110610b0d5750610a3e565b60008155600101610b00565b9096508690610af8565b015190503880610a09565b90601f1983169184600052896000209260005b8b828210610b85575050926002928592600398979660019610610b6b575b50505002019055610a20565b01516008838a1602840a6000190419169055388080610b5f565b6001859682939686015181550195019301610b41565b836000528860002089878181870104830193828710610bd3575b010401905b818110610bc757506109ed565b60008155600101610bba565b93508293610bb5565b0151905038806109b6565b60008581528b81209350601f198516905b8c828210610c385750509160029391856001969410610c1e575b505050020190556109cd565b01516008838a1602840a6000190419169055388080610c12565b6001859682939686015181550195019301610bf8565b90915083600052896000208a888181870104830193828710610c93575b90869594939291010401905b818110610c8457506109a1565b60008155849350600101610c77565b93508293610c6b565b015190503880610968565b60008581528c81209350601f198516905b8d828210610cf85750509160029391856001969410610cde575b5050500201905561097f565b01516008838b1602840a6000190419169055388080610cd2565b6001859682939686015181550195019301610cb8565b909150836000528a6000208b898181870104830193828710610d53575b90869594939291010401905b818110610d445750610953565b60008155849350600101610d37565b93508293610d2b565b50346107d957602090816003193601126107d95773ffffffffffffffffffffffffffffffffffffffff610d8d61102e565b168060005260008352816000205492610da584611472565b92610db2815194856110c4565b848452610dbe85611472565b8483019590601f1901368737610dd38161148a565b90610ddd8161148a565b93610de78261148a565b91610df18161148a565b9660005b828110610e7f5750505083519660a088019060a089525180915260c08801989060005b818110610e6b5750505092610891959492610e4289610e4f94610e5d978b809d03908c01526111d1565b91888303908901526111d1565b9085820360608701526111d1565b9083820360808501526111d1565b82518b529983019991830191600101610e18565b610f34908260005260008552610f196004610e9d838b600020611051565b508d610eab858354926114d4565b52610eb8600282016110e6565b610ec2858c6114d4565b52610ecd848b6114d4565b508b610ee585610edf600385016110e6565b926114d4565b52610ef0848d6114d4565b50610efd600182016110e6565b610f07858b6114d4565b52610f12848a6114d4565b50016110e6565b610f23828c6114d4565b52610f2e818b6114d4565b5061127c565b610df5565b50346107d957806003193601126107d957610f5261102e565b73ffffffffffffffffffffffffffffffffffffffff60243591166000526000602052816000209081548110156107d957610f8b91611051565b5090610891825491611020610fa2600186016110e6565b94611012610fb2600283016110e6565b93611004610fc2600385016110e6565b91610fdb6005610fd4600488016110e6565b96016110e6565b96610ff782519b8c9b8c5260c060208d015260c08c01906111ac565b918a8303908b01526111ac565b9087820360608901526111ac565b9085820360808701526111ac565b9083820360a08501526111ac565b6004359073ffffffffffffffffffffffffffffffffffffffff821682036107d957565b805482101561106d576000526006602060002091020190600090565b60e060020a634e487b7102600052603260045260246000fd5b90600160028304921680156110ba575b60208310146110a157565b60e060020a634e487b7102600052602260045260246000fd5b91607f1691611096565b90601f8019910116810190811067ffffffffffffffff82111761045457604052565b906040519182600082546110f981611086565b9081845260209460019182811690816000146111685750600114611129575b505050611127925003836110c4565b565b600090815285812095935091905b8183106111505750506111279350820101388080611118565b85548884018501529485019487945091830191611137565b9250505061112794925060ff19168284015215158102820101388080611118565b60005b83811061119c5750506000910152565b818101518382015260200161118c565b906020916111c581518092818552858086019101611189565b601f01601f1916010190565b908151808252602080920191828180840282019501936000915b8483106111fb5750505050505090565b909192939495848061121583856001950387528a516111ac565b98019301930191949392906111eb565b81601f820112156107d95780359067ffffffffffffffff8211610454576040519261125a601f8401601f1916602001856110c4565b828452602083830101116107d957816000926020809301838601378301015290565b60001981146107c05760010190565b60009291815461129a81611086565b926001918083169081156112f357506001146112b7575b50505050565b90919293945060005260209081600020906000915b8583106112e257505050500190388080806112b1565b8054858401529183019181016112cc565b60ff19168452505050811515909102019150388080806112b1565b73ffffffffffffffffffffffffffffffffffffffff9092919216906000928284526020918483526040928386205494865b868110611359575050505050505090606090819082908390565b81885287835261136b81878a20611051565b5086518481018161137f826005860161128b565b0391611393601f19938481018352826110c4565b5190208851868101906113bf8882816113b28d87815193849201611189565b81010380845201826110c4565b51902014600283019189516113e888820192826113dc858861128b565b039081018352826110c4565b519020888a516114078982816113b28183019687815193849201611189565b51902014908161146a575b506114275750506114229061127c565b61133f565b95975097505050505061143a91506110e6565b508154611449600184016110e6565b93611462600361145b600487016110e6565b95016110e6565b919493929190565b905038611412565b67ffffffffffffffff81116104545760208091020190565b9061149482611472565b6114a160405191826110c4565b82815280926114b2601f1991611472565b019060005b8281106114c357505050565b8060606020809385010152016114b7565b805182101561106d57602080920201019056fea2646970667358221220d299b3b3eec83116e5435ad6eb6f6f104445c0b57680f4f3f42faed5de3f63d564736f6c63430008150033",
  "immutableReferences": {},
  "source": "// SPDX-License-Identifier: SEE LICENSE IN LICENSE\r\npragma solidity ^0.8.21;\r\n\r\ncontract UsersInfo {\r\n    struct User {\r\n        uint256 id;\r\n        string name;\r\n        string email;\r\n        string mobile;\r\n        string addresses;\r\n        string password;\r\n    }\r\n    mapping(address => User[]) public users;\r\n\r\n    function addUser(\r\n        string memory _password,\r\n        string memory name,\r\n        string memory addresses,\r\n        string memory _mobile,\r\n        string memory _email\r\n    ) public {\r\n        uint256 newUserid = users[msg.sender].length + 1;\r\n        users[msg.sender].push(\r\n            User(newUserid, name, _email, _mobile, addresses, _password)\r\n        );\r\n    }\r\n\r\n    function updateUser(\r\n        string memory name,\r\n        string memory addresses,\r\n        string memory _mobile,\r\n        string memory _password,\r\n        uint256 id\r\n    ) public {\r\n        User storage user = users[msg.sender][id];\r\n        user.name = name;\r\n        user.addresses = addresses;\r\n        user.password = _password;\r\n        user.mobile = _mobile;\r\n    }\r\n\r\n    function loginSubmit(\r\n        address app_user,\r\n        string memory _email,\r\n        string memory _password\r\n    )\r\n        public\r\n        view\r\n        returns (\r\n            uint256,\r\n            string memory,\r\n            string memory,\r\n            string memory,\r\n            string memory\r\n        )\r\n    {\r\n        uint256 indexSize = users[app_user].length;\r\n\r\n        string memory _emails;\r\n        string memory _mobile;\r\n        string memory _name;\r\n        uint256 _id;\r\n        string memory _addresses;\r\n\r\n        for (uint256 i = 0; i < indexSize; i++) {\r\n            User storage userCheck = users[app_user][i];\r\n            bool passwordCheck = keccak256(\r\n                abi.encodePacked(userCheck.password)\r\n            ) == keccak256(abi.encodePacked(_password));\r\n            bool emailCheck = keccak256(abi.encodePacked(userCheck.email)) ==\r\n                keccak256(abi.encodePacked(_email));\r\n            if (emailCheck && passwordCheck) {\r\n                _emails = userCheck.email;\r\n                _id = userCheck.id;\r\n                _name = userCheck.name;\r\n                _addresses = userCheck.addresses;\r\n                _mobile = userCheck.mobile;\r\n                return (_id, _name, _addresses, _email, _mobile);\r\n            }\r\n        }\r\n        return (_id, _name, _addresses, _emails, _mobile);\r\n    }\r\n\r\n    function getEveryUser(\r\n        address app_user\r\n    )\r\n        public\r\n        view\r\n        returns (\r\n            uint256[] memory,\r\n            string[] memory,\r\n            string[] memory,\r\n            string[] memory,\r\n            string[] memory\r\n        )\r\n    {\r\n        uint256 index = users[app_user].length;\r\n        uint256[] memory _id = new uint256[](index);\r\n        string[] memory _email = new string[](index);\r\n        string[] memory _mobile = new string[](index);\r\n        string[] memory _name = new string[](index);\r\n        string[] memory _addresses = new string[](index);\r\n\r\n        for (uint256 i = 0; i < index; i++) {\r\n            User storage userPoint = users[app_user][i];\r\n            _id[i] = userPoint.id;\r\n            _email[i] = userPoint.email;\r\n            _mobile[i] = userPoint.mobile;\r\n            _name[i] = userPoint.name;\r\n            _addresses[i] = userPoint.addresses;\r\n        }\r\n        return (_id, _name, _email, _mobile, _addresses);\r\n    }\r\n}\r\n",
  "sourcePath": "C:\\Users\\likit\\OneDrive\\Desktop\\Supply chain\\Blocks\\contracts\\UsersInfo.sol",
  "compiler": {
    "name": "solc",
    "version": "0.8.21+commit.d9974bed.Emscripten.clang"
  },
  "schemaVersion": "3.4.16",
  "updatedAt": "2025-05-01T07:07:51.037Z",
  "networkType": "ethereum",
  "devdoc": {
    "kind": "dev",
    "methods": {},
    "version": 1
  },
  "userdoc": {
    "kind": "user",
    "methods": {},
    "version": 1
  }
}